S01700006B616C615F6C65645F7063625F66772E7372656310
S11300000C943E000C9450000C9450000C9450003E
S11300100C9450000C9450000C9450000C9450001C
S11300200C9450000C9450000C9450000C9450000C
S11300300C9450000C9450000C9450000C945000FC
S11300400C9450000C9450000C9450000C945000EC
S11300500C9450000C9450000C9450000C945000DC
S11300600C9450000C9450000C9450000C945000CC
S11300700C9450000C9450000C94500011241FBE9A
S1130080CFEFCDBFDFE3DEBF2BE3A0E0B8E301C0D9
S11300901D92A030B207E1F70E9452000C94620056
S11300A00C94000080E09FEFE82FF0E09F01220F06
S11300B0331FE20FF31FE050F84C91831082128239
S10B00C08F5FF2CFF894FFCF2B
S9030000FC
