:100000000C9435000C945D000C945D000C945D0024
:100010000C945D000C945D000C945D000C945D00EC
:100020000C945D000C945D000C945D000C945D00DC
:100030000C945D000C945D000C945D000C945D00CC
:100040000C9449040C945D000C945D000C945D00CC
:100050000C945D000C945D000C945D000C945D00AC
:100060000C945D000C945D00050711241FBECFEFBA
:10007000D8E0DEBFCDBF11E0A0E0B1E0E8E5FFE0F1
:1000800002C005900D92A231B107D9F721E0A2E19B
:10009000B1E001C01D92A435B207E1F710E0C5E35D
:1000A000D0E004C02197FE010E949507C433D10718
:1000B000C9F70E943A040C94AA070C940000FC01B2
:1000C000858596850895CF93DF9300D000D000D02A
:1000D000CDB7DEB7AB011C821D821E82DC01ED9123
:1000E000FC910190F081E02D19821A821B829E0101
:1000F0002F5F3F4FBE016C5F7F4F099526960FB66D
:10010000F894DEBF0FBECDBFDF91CF91089580E997
:1001100091E00895539A089580911301811145C08B
:1001200010921E0110921D018FEF80932101809388
:1001300022018093230180932401809325018093E1
:10014000260181E080932701109229011092280155
:100150001092200110921F0180914501909146015B
:10016000892B31F48BE191E0909346018093450116
:10017000E0914301F0914401309721F08BE191E04F
:10018000958384838BE191E09093440180934301B4
:1001900010922B0110922A0184E091E090931C01AF
:1001A00080931B0181E08093130120E030E041E067
:1001B00050E06CE271E08BE191E00C94C7060F9384
:1001C0001F93CF93DF93CCE2D1E08FEF8883198226
:1001D0001A8207E411E0F8016081C8010E94F70566
:1001E00064EF71E080E090E00E94C40418821982FC
:1001F0001A82F8016081C8010E94F70564EF71E07E
:1002000080E090E0DF91CF911F910F910C94C40496
:100210009F92AF92BF92CF92DF92EF92FF920F9395
:100220001F93CF93DF93FC01C080D1802BB1286056
:10023000B22E9BB1977F9BB962858781062F081BE1
:10024000802F07837785A281B381358544855685C4
:1002500099249394930E4F5F5F5FF680E084C1858D
:10026000D385F6011181A12C0A2D2A2D3A2D318139
:10027000112788943111380F08F43FEF8195889445
:1002800090FC130F1795889491FC130F1795889481
:1002900092FC130F1795889493FC130F179588946D
:1002A00094FC130F1795889495FC130F1795889459
:1002B00096FC130F1795889497FC130F1795889445
:1002C000032F9110012F860F102F002CBBB800C0F8
:1002D00017FF9BB930810027889400C000C0002C14
:1002E0009BB931113F0D00C0002CBBB800C016FFF8
:1002F0009BB908F43FEFF194889400C000C0002C33
:100300009BB940FD030F00C0002CBBB800C015FF17
:100310009BB90795889441FD030F00C000C0002CD5
:100320009BB90795889400C0002CBBB800C014FF8F
:100330009BB942FD030F0795889400C000C0002CB4
:100340009BB943FD030F00C0002CBBB800C013FFD6
:100350009BB90795889444FD030F00C000C0002C92
:100360009BB90795889400C0002CBBB800C012FF51
:100370009BB945FD030F0795889400C000C0002C71
:100380009BB946FD030F00C0002CBBB800C011FF95
:100390009BB90795889447FD030F00C000C0002C4F
:1003A0009BB90795889400C0002CBBB800C010FF13
:1003B0009BB9132F4111102FFC0E00C000C0002C60
:1003C0009BB900C000C0002CBBB800C017FF9BB990
:1003D00032810027889400C000C0002C9BB93111E5
:1003E0003E0D00C0002CBBB800C016FF9BB908F43E
:1003F0003FEFE70FF11D00C000C0002C9BB950FD7E
:10040000030F00C0002CBBB800C015FF9BB90795B7
:10041000889451FD030F00C000C0002C9BB90795C4
:10042000889400C0002CBBB800C014FF9BB952FDDB
:10043000030F0795889400C000C0002C9BB953FDA2
:10044000030F00C0002CBBB800C013FF9BB9079579
:10045000889454FD030F00C000C0002C9BB9079581
:10046000889400C0002CBBB800C012FF9BB955FD9A
:10047000030F0795889400C000C0002C9BB956FD5F
:10048000030F00C0002CBBB800C011FF9BB907953B
:10049000889457FD030F00C000C0002C9BB907953E
:1004A000889400C0002CBBB800C010FF9BB9132F6C
:1004B0005111102FE19400C000C0002C9BB9ED0E2B
:1004C00000C000C0BBB800C017FF9BB93181002736
:1004D000889400C000C0002C9BB93111380F00C0B7
:1004E000002CBBB800C016FF9BB908F43FEF819504
:1004F000889400C000C0002C9BB990FC030F00C082
:10050000002CBBB800C015FF9BB90795889491FCDF
:10051000030F00C000C0002C9BB90795889400C051
:10052000002CBBB800C014FF9BB992FC030F0795C9
:10053000889400C000C0002C9BB993FC030F00C03E
:10054000002CBBB800C013FF9BB90795889494FC9E
:10055000030F00C000C0002C9BB90795889400C011
:10056000002CBBB800C012FF9BB995FC030F079588
:10057000889400C000C0002C9BB996FC030F00C0FB
:10058000002CBBB800C011FF9BB90795889497FC5D
:10059000030F00C000C0002C9BB90795889400C0D1
:1005A000002CBBB800C010FF9BB9132F9110102F67
:1005B000860F00C000C0002C9BB9119709F086CEB1
:1005C000DF91CF911F910F91FF90EF90DF90CF902F
:1005D000BF90AF909F9008950F931F93CF93DF9399
:1005E000EC018B010E949F042F853889621B730BDD
:1005F0006A307105B8F3F894C8010E940801F80147
:100600004281538120EE31E0DA010E946F07DC0164
:10061000CB01F4E0B695A79597958795FA95D1F714
:1006200020E030E0B901EAE94E9F612D5E9F600D48
:10063000711D1124860F971FA11DB11D893EF3E086
:100640009F07A105B10588F1885E9340A109B10912
:1006500042E0B695A795979587954A95D1F747E0DB
:10066000849F212D949F200D311D112460912F0115
:1006700070E0860F971F820F931F409131015091B8
:1006800032016091330170913401292F3327420FD9
:10069000531F611D711D40933101509332016093CE
:1006A00033017093340180932F0178940E949F044A
:1006B000788B6F87DF91CF911F910F910895FC0187
:1006C000118A108A08950F931F93CF93DF9320917F
:1006D00012012F5F322F37703093120120FF02C0BA
:1006E00020E801C020E031FD2064347009F0206270
:1006F000205FFC01EC01239600E011E06485662395
:1007000031F070E0C8010E941A076F5F01C060E01D
:100710006187322F369F030E30E0311D11243111D5
:1007200002C0168202C031503683662311F0615038
:1007300061873196CE17DF0709F7DF91CF911F91BF
:100740000F910895EF92FF920F931F93CF93DF9332
:10075000CDB7DEB762970FB6F894DEBF0FBECDBF40
:100760008C017A01F901DC011C968C917A836983F2
:100770005C834B835E834D8390819D8791819E87AF
:1007800092819F87813029F4CE0101960E946303F4
:1007900006C01C861B861A86198618861F8283E06F
:1007A000888BB701CE0101960E945F03D801ED91BD
:1007B000FC910484F585E02DBE016F5F7F4FC80179
:1007C000099562960FB6F894DEBF0FBECDBFDF91DC
:1007D000CF911F910F91FF90EF900895EF92FF92AC
:1007E0000F931F93CF93DF93CDB7DEB762970FB60A
:1007F000F894DEBF0FBECDBF8C017A01F901DC0198
:100800001C968C917A8369835C834B835E834D83D2
:1008100090819D8791819E8792819F87813029F465
:10082000CE0101960E94630306C01C861B861A86B1
:10083000198618861F82188AB701CE0101960E9478
:100840005F03D801ED91FC910484F585E02DBE0194
:100850006F5F7F4FC801099562960FB6F894DEBFAF
:100860000FBECDBFDF91CF911F910F91FF90EF9001
:10087000089508950E9400050E9439040E948C008A
:10088000C0E0D0E00E94DF002097E1F30E9400006A
:10089000F9CF1F920F920FB60F9211242F933F930F
:1008A0008F939F93AF93BF938091310190913201C9
:1008B000A0913301B09134013091300123E0230F36
:1008C0002D3720F40196A11DB11D05C026E8230F88
:1008D0000296A11DB11D20933001809331019093A8
:1008E0003201A0933301B09334018091350190918E
:1008F0003601A0913701B09138010196A11DB11DBB
:100900008093350190933601A0933701B09338015D
:10091000BF91AF919F918F913F912F910F900FBEFB
:100920000F901F9018952FB7F89460913101709136
:10093000320180913301909134012FBF08953FB768
:10094000F8948091350190913601A0913701B091D2
:10095000380126B5A89B05C02F3F19F00196A11DAF
:10096000B11D3FBFBA2FA92F982F8827820F911D45
:10097000A11DB11DBC01CD0142E0660F771F881F8C
:10098000991F4A95D1F708958F929F92AF92BF9287
:10099000CF92DF92EF92FF926B017C010E949F0445
:1009A0004B015C01C114D104E104F10401F10E9486
:1009B00009070E949F04DC01CB0188199909AA0943
:1009C000BB09883E9340A105B10560F321E0C21A3E
:1009D000D108E108F10888EE880E83E0981EA11C7A
:1009E000B11CC114D104E104F10419F7DBCFFF906D
:1009F000EF90DF90CF90BF90AF909F908F90089531
:100A0000789484B5826084BD84B5816084BD85B5E9
:100A1000826085BD85B5816085BDEEE6F0E08081B0
:100A200081608083E1E8F0E01082808182608083D1
:100A3000808181608083E0E8F0E080818160808354
:100A4000E1EBF0E0808184608083E0EBF0E0808186
:100A500081608083EAE7F0E0808184608083808128
:100A600082608083808181608083808180688083D0
:100A70001092C10008958F929F92AF92BF92CF9231
:100A8000DF92EF92FF920F931F93CF93DF93EC01CE
:100A9000188219821A826623C1F1FA0189017C0148
:100AA0006A0183E0C80ED11C862E912CA12CB12C9A
:100AB0002191222311F1D8016C916623F1F0822F4C
:100AC00090E0A0E0B0E09C01AD012F5F3F4F4F4FA1
:100AD0005F4F862F90E0A0E0B0E0BC01CD016F5FDA
:100AE0007F4F8F4F9F4F0E940A079B01AC01C501AA
:100AF000B4010E940A07D7018C930F5F1F4FBFEF0D
:100B0000EB1AFB0AEC15FD0599F6CE01DF91CF91AA
:100B10001F910F91FF90EF90DF90CF90BF90AF901B
:100B20009F908F900895FC018FEF80831282118235
:100B3000148613868FEF9FEFDC0187839087A18750
:100B4000B2870895CF92DF92EF92FF920F931F9397
:100B5000CF93DF9320913D0130913E01A9014F5F7A
:100B60005F4F50933E0140933D0126173707B4F184
:100B7000EC010E9493048B019C01E0913D01F091F6
:100B80003E0188EE93E0E89FB001E99F700DF89F69
:100B9000700D1124072E000C880B990BC0903901A1
:100BA000D0903A01E0903B01F0903C01A9019801FE
:100BB0002C193D094E095F090E942E073A832983AB
:100BC00010923E0110923D010E94930460933901FE
:100BD00070933A0180933B0190933C01DF91CF9158
:100BE0001F910F91FF90EF90DF90CF900895AF92FB
:100BF000BF92CF92DF92EF92FF920F931F93CF930A
:100C0000DF9300D01F92CDB7DEB77C01D62EF7015F
:100C100083819481A581B681892B8A2B8B2BD1F07E
:100C20000E949F0400913F011091400120914101D9
:100C300030914201DC01CB01801B910BA20BB30B65
:100C4000F701038114812581368180179107A2075E
:100C5000B307E8F20E949F0460933F017093400144
:100C60008093410190934201D7011B96ED91FC9135
:100C70001C97309751F0D70117964D915D916D916A
:100C80007C911A978D2D0995D82E009145011091D0
:100C900046010115110579F1F801C484D7011196B7
:100CA0008D919C9112978436910508F41486D80191
:100CB000ED91FC91A280B3809801275F3F4FA8017E
:100CC0004A5F5F4F6D2DCE0101960E943B05F801F2
:100CD00045855685628173819E012F5F3F4FC80114
:100CE000F5010995D8011C96CC921C9714960D918C
:100CF0001C911597CECF69E170E0C7010E94A20553
:100D00000F900F900F90DF91CF911F910F91FF9057
:100D1000EF90DF90CF90BF90AF900895CF93DF9387
:100D2000EC014423E1F06115710571F19B0140E094
:100D300050E060E472E48FE090E00E9450078B8105
:100D40009C81AD81BE8182179307A407B50710F47B
:100D5000DA01C9018B839C83AD83BE8315C0611505
:100D6000710571F09B0140E050E060E472E48FE0B7
:100D700090E00E9450072B833C834D835E8304C028
:100D80001B821C821D821E82DF91CF910895CF921B
:100D9000DF92EF92FF920F931F93CF93DF938C011B
:100DA0006B01EA017901121613061CF07A01C0E00A
:100DB000D0E0D801ED91FC910480F581E02DC801CF
:100DC0000995CE01880F991FC80FD91FCC0DDD1DC5
:100DD000F801D383C283F686E5860190F081E02D89
:100DE0000284F385E02DC801099541E0BC0187E448
:100DF00091E00E948E06C801DF91CF911F910F9163
:100E0000FF90EF90DF90CF90089587E491E00C94ED
:100E100093050895DB018F939F930E947607BF91FE
:100E2000AF91A29F800D911DA39F900DB29F900D39
:100E30001124089597FB072E16F4009407D077FD30
:100E400009D00E94810707FC05D03EF4909581955A
:100E50009F4F0895709561957F4F0895A1E21A2ED6
:100E6000AA1BBB1BFD010DC0AA1FBB1FEE1FFF1F4E
:100E7000A217B307E407F50720F0A21BB30BE40B9E
:100E8000F50B661F771F881F991F1A9469F76095E5
:100E90007095809590959B01AC01BD01CF0108959F
:100EA000052E97FB1EF400940E94670757FD07D09C
:100EB0000E942E0707FC03D04EF40C946707509550
:100EC0004095309521953F4F4F4F5F4F0895909536
:100ED0008095709561957F4F8F4F9F4F08950E9429
:100EE0009B07B7FF0895821B930B08950E949B07F1
:100EF000A59F900DB49F900DA49F800D911D11246E
:100F00000895AA1BBB1B51E107C0AA1FBB1FA61750
:100F1000B70710F0A61BB70B881F991F5A95A9F7A2
:100F200080959095BC01CD010895EE0FFF1F0590AF
:100F3000F491E02D0994A29FB001B39FC001A39F3B
:100F4000700D811D1124911DB29F700D811D112402
:080F5000911D0895F894FFCFF4
:100F580000000000EE03A2038A0063005F00870020
:020F6800EC0299
:00000001FF
